:020000040800F2
:1000000040090020C101000867210008511F0008B5
:100010006521000801030008ED260008000000002B
:100020000000000000000000000000002D22000879
:100030002505000800000000692100082F220008A3
:10004000DB010008DB010008DB010008DB01000820
:10005000DB010008DB010008DB010008DB01000810
:10006000DB010008DB010008DB010008DB01000800
:10007000DB010008DB010008DB010008DB010008F0
:10008000DB010008DB010008DB010008DB010008E0
:100090006D030008DB010008DB010008DB0100083C
:1000A000DB010008DB010008DB010008DB010008C0
:1000B000DB010008DB010008DB010008DB010008B0
:1000C000DB010008DB010008DB010008DB010008A0
:1000D000DB010008DB010008DB010008DB01000890
:1000E000DB010008DB010008DB010008DB01000880
:1000F000DB010008DB010008DB010008DB01000870
:10010000DB010008DB010008DB010008DB0100085F
:10011000DB010008DB010008DB010008C922000840
:10012000DB010008E9030008DB010008DB0100082F
:10013000DB010008DB010008DB010008DB0100082F
:10014000DB010008DB010008DB010008DB0100081F
:10015000DB010008F5030008DB0100088126000828
:10016000DB010008DB010008DB010008DB010008FF
:10017000DB010008DB010008DB01000800000000D3
:10018000DB010008DB010008DB010008DB010008DF
:10019000DB010008DB010008DB010008DB010008CF
:1001A0000000000000000000DB010008DFF80CD0B8
:1001B00000F094F800480047592700084009002043
:1001C0000648804706480047FEE7FEE7FEE7FEE7F1
:1001D000FEE7FEE7FEE7FEE7FEE7FEE7B9220008DE
:1001E000AD0100082DE9F05F0546002092469B46D0
:1001F00088460646814640241BE02846414647463D
:10020000224600F05AF853465A46C01A914110D37C
:1002100011461846224600F041F82D1A67EB0108F6
:100220004F4622460120002100F038F817EB000964
:100230004E41201EA4F10104DFDC484631462A4627
:100240004346BDE8F09F40EA01039B0703D009E065
:1002500008C9121F08C0042AFAD203E011F8013BB2
:1002600000F8013B521EF9D27047D2B201E000F80B
:10027000012B491EFBD270470022F6E710B513464A
:100280000A4604461946FFF7F0FF204610BD421CFF
:1002900010F8011B0029FBD1801A7047202A04DBCB
:1002A000203A00FA02F1002070479140C2F1200389
:1002B00020FA03F3194390407047202A04DB203AC8
:1002C00021FA02F00021704721FA02F3D040C2F176
:1002D000200291400843194670470000064C074D24
:1002E00006E0E06840F0010394E807009847103406
:1002F000AC42F6D3FFF75EFFC4290008E4290008EA
:10030000FEE700000FB4002010B50121CDE908017F
:100310000A91069007900B9002900390049005902C
:1003200002A9034800F05AFA10BC5DF814FB000063
:100330007C01002000B587B018220A496846FFF703
:1003400082FF084810380FC8FFF7DCFF064800F0AE
:100350000DFD05480068416941F00201416107B0A7
:1003600000BD0000540300207C010020124800B5AD
:10037000006891B04069800719D501208DF81800F8
:100380000DF1190309AA00210B4800F0AEFA0998F3
:10039000A0F5007106390AD118220AA96846FFF7AC
:1003A00052FF0DF1180C9CE80F0001F09DFE024871
:1003B00000F00FFB11B000BD7C01002030B41446EA
:1003C000084A1D4661B15460916000210823C2E9CA
:1003D000031311752A4630BC0123024900F09AB973
:1003E0001460F1E76C030020014800F005BD000037
:1003F000C4020020014800F0FFBC0000640200209D
:1004000001681823CAB2103AB2FBF3F2054B6FF33E
:100410000901032A9B5CC36500D9091D8165084653
:1004200070470000A429000810B5014600208B6920
:100430008A6A4FF0C07453B1B3F5005F15D072B142
:10044000012A0CD0022A0AD0032A09D104E01AB1E9
:10045000012A06D0022A03D1C96AC90100D50120A8
:1004600010BDC96AA142FAD010BD002AF7D0012AF6
:10047000F2D0022AF3D0032AF3D010BD30B50468BD
:10048000256825F480252560046863608368402B17
:10049000036803D099600068C26030BD9A6000684C
:1004A000C16030BD0A2839D890B31D4924220B28D9
:1004B0000A7033D2DFE800F032060A0E12161A1E56
:1004C00022272D0005204871062070470920487218
:1004D0000A2070470D2048730E2070471120487481
:1004E000122070471520487516207047192048764D
:1004F0001A2070471D2048771E207047212081F860
:10050000210022207047252081F8250026207047F1
:1005100004E0292081F829002A20F8E70020F6E7E6
:10052000500100207047000070B50646007890B07A
:10053000DB281DD17078354CDB21D8B104F11405CE
:1005400002281FD0042839D0062811D1B4782022DF
:100550002F496846FFF777FE04EB440005EB800166
:1005600055F82000097A5DF82120F11CFFF76BFE99
:1005700010B070BD21700120607026480322007801
:10058000A07014E0B078217003216170A07000EBBE
:10059000400005EB8006307AE0707068FFF777FE68
:1005A000C5B26A1C201D7168FFF74DFE6A1D10B0B0
:1005B0001649BDE87040184801F088BCB678217033
:1005C000052060701249A670202240396846FFF766
:1005D0003AFE06EB460005EB8006317A5DF82120F5
:1005E00055F82010E01CFFF72EFE09492022203983
:1005F00008A8FFF728FE307A08A931F8200003493F
:10060000C01C82B2044801F061FCB1E74C0000203C
:1006100084290008000000202402002070B5074C47
:10062000074D237803EB43065B1C45F8260005EBDA
:10063000860041600272237070BD0000000000203F
:100640006000002001B50A282DED020B12D8002809
:1006500010D00B280ED2DFE800F00D06080E1012A5
:100660001416181A1C00012200E005220A496846E7
:1006700000F025F80EBD0922F8E70D22F6E7112259
:10068000F4E71522F2E71922F0E71D22EEE7212216
:10069000ECE72522EAE700005001002010B5C0B2C7
:1006A000FFF700FF0246BDE810400249024801F092
:1006B0000DBC000050010020240200207047037888
:1006C0008B54114443784B7082788A70C078C8701C
:1006D000704700001CB5040A8DF800408DF8010039
:1006E000080A8DF80200100A8DF804008DF8052024
:1006F000180A8DF806008DF803108DF807306B4648
:1007000040F2FF1200210248FFF758FE1CBD000016
:100710007C010020F0B590F820500468A468012DF9
:1007200005D0022D03D0416A41F4802153E014F03A
:10073000406F01D1E5004BD5C4F30164022C03D90D
:10074000416A41F4000146E00125A5401D608D6825
:100750004FF4C0739DB1CE6835434E6845EAC60577
:10076000066803EB0417F5514FF4C275076805EBF3
:1007700004150E697E51097D012905D009E00E8816
:10078000CD6845EA4655EBE701684E5946F4807658
:100790004E511179D2F805504FF4C67641EA05253D
:1007A000016806EB04168D511178D2F801204FF440
:1007B000C47541EA0221026805EB04155151006835
:1007C00003EB0411425842F0010242500020F0BDF8
:1007D000416A41F4001141620120F0BD10B590F86A
:1007E0002020012A07D0022A05D0416A41F4802145
:1007F0004162012010BD3B48D0F8002242F00102C6
:10080000C0F80022D0F8002222F47C52C0F8002266
:10081000D0F800224B6A42EA0322C0F800220A7D87
:1008200002F01F0301229A40D0F81C329343C0F813
:100830001C32CB69B3B9D0F80C329343C0F80C32F8
:100840008C894B6864F31F434C6900EBC404C4F803
:1008500040320C890B6864F31F434C6900EBC404FD
:10086000C4F84432CB69012B16D1D0F80C321343B3
:10087000C0F80C320C884B6864F31F434C6900EBE2
:10088000C404C4F840320C89CB6864F31F434C693C
:1008900000EBC404C4F844328B69002BD0F8043256
:1008A0000ED01343C0F804320B69002BD0F8143279
:1008B00008D01343C0F81432096A012904D008E0B3
:1008C0009343EFE79343F5E7D0F81C121143C0F8C8
:1008D0001C12D0F8001221F00101C0F80012002013
:1008E00010BD000000640040704730B590F8204013
:1008F000012C05D0022C03D0416A41F480215DE037
:100900000468002955D02469A40754D04FF4D87442
:10091000056804EB01142D5915F004059560056870
:100920002D594ED0ED08556005682C5904F002048D
:10093000D4604FF4DA74056804EB01142D5905F006
:100940000F05156105682D59C5F3072595610568E3
:100950002C59240C54614FF4DC72046802EB011230
:10096000A4581C700468A458240A5C700468A45835
:10097000240C9C700468A258120EDA704FF4DE72D8
:10098000046802EB0112A4581C710468A458240ADC
:100990005C710468A458240C9C710468A258120E5F
:1009A000DA71006881B1016941F020010161002024
:1009B00030BDE468A8E7416A41F4001141620120BA
:1009C00030BD6D0D1560AFE7C16841F02001C16019
:1009D000EDE72DE9F05F0546006800244669D0F890
:1009E00004908768D0F80CB0D0F810A0D0F8188028
:1009F000F10748D0F90714D001218160B80703D569
:100A0000284600F0E0F90CE0780702D54FF40064C6
:100A100007E0380702D54FF4805402E0284600F082
:100A2000D1F9F80516D529684FF480708860B805AB
:100A300003D5284600F0C9F90CE0780502D544F446
:100A4000005407E0380502D544F4804402E028460B
:100A500000F0BAF9F80316D529684FF480308860A1
:100A6000B80303D5284600F0B2F90CE0780302D5AC
:100A700044F4004407E0380302D544F4803402E033
:100A8000284600F0A3F9300707D55FEACB6004D50C
:100A90002968102044F40074C86070074FF00807FC
:100AA00007D55FEA0B7004D52868C760284600F0B8
:100AB00057F9B00706D52868C068800702D02846D5
:100AC00000F04FF9700607D55FEACA6004D52968BF
:100AD000102044F480640861B00607D55FEA0A700C
:100AE00004D528680761284600F03CF9F00606D5D1
:100AF00028680069800702D0284600F034F9B00366
:100B000008D55FEAC96005D52968102048602846E5
:100B100000F02AF9F00307D55FEA097004D52868C8
:100B20004760284600F054F9300446D55FEA497022
:100B300040D5F00504D55FEAC87001D044F0010447
:100B4000B00504D55FEA887001D544F00204700551
:100B500004D55FEA487001D544F00404300529D576
:100B600018F0700F26D008F07000402815D006DC71
:100B7000102809D020280AD0302816D10AE05028A1
:100B80000ED0602811D10EE044F008040DE044F0CE
:100B900010040AE044F0200407E044F0400404E0BC
:100BA00044F0800401E044F480742868816921F0F5
:100BB00070018161296804204860002C05D0686AB2
:100BC000204368622846FFF78FFEBDE8F09F70B5AE
:100BD000040003D094F8200010B104E0012070BD9F
:100BE000204600F081F82068016821F002010160D0
:100BF00000F070FB0546052604E000F06BFB401B8F
:100C00000A2811D8206840688007F6D42068016857
:100C100041F00101016000F05DFB05460BE000F0D2
:100C200059FB401B0A2806D9606A40F40030606214
:100C300084F82060D2E720684068C007EFD0207EAB
:100C40000128206801683DD021F080010160607EAC
:100C500001282068016838D021F040010160A07EA1
:100C600001282068016833D021F020010160E07E76
:100C70000128206801682ED041F010010160207F1A
:100C800001282068016829D021F008010160607FF7
:100C900001282068016824D021F004010160D4E912
:100CA00002010843D4E90412114308436168491E54
:100CB00008432168C86100206062012084F8200098
:100CC000002070BD41F08001C0E741F04001C5E760
:100CD00041F02001CAE721F01001CFE741F00801FF
:100CE000D4E741F00401D9E710B586B004461421D9
:100CF0006846FFF7C1FA17492068884227D116488D
:100D00000021026842F000720260006800F000708A
:100D1000059011481038026842F00802026000682D
:100D2000022200F0080005900320CDE90210CDE971
:100D30000002092004906946084800F0E1F9002209
:100D40000621142000F034FB142000F023FB06B031
:100D500010BD00000064004040380240000C02401A
:100D600070477047704770477047000070B5044681
:100D700090F82000012804D0606A40F400206062EE
:100D800018E0022084F820002068016821F00101A9
:100D9000016000F09FFA05460EE000BF00F09AFAED
:100DA000401B0A2808D9606A40F4003060620520C0
:100DB00084F82000012070BD20684068C007EDD194
:100DC000606270BD704770477047704770477047EA
:100DD000704790F83510022903D080214165012029
:100DE0007047052180F835100068016821F0010185
:100DF00001600020704700002DE9F84304464FF0E1
:100E00000009CDF8009063484FF41651A56D0068B5
:100E1000B0FBF1F72E6894F85C10082000FA01F19D
:100E200031420FD021680A6852070BD50A6822F0B8
:100E300004020A6094F85C108840A860606D40F07D
:100E40000100606594F85C104FF0010808FA01F0A9
:100E5000304208D021684969090604D5A860606D50
:100E600040F00200606594F85C1004208840304235
:100E700008D021680968890704D5A860606D40F032
:100E80000400606594F85C1010208840304218D04F
:100E900021680968090714D5A8602068016849031A
:100EA00004D50068000308D5A16C07E00168C905F6
:100EB00003D4016821F008010160216C09B12046CA
:100EC000884794F85C1020208840304231D0216857
:100ED0000968C9062DD5A86094F835000528206852
:100EE000016806D0490347D5006800031DD4616C32
:100EF0001CE021F0160101602068416921F08001A9
:100F00004161206C08B9A06C20B12068016821F013
:100F10000801016094F85C103F208840A86084F8C4
:100F2000349084F83580216D1FE0E16B09B12046D3
:100F30008847606D00282BD0606DC00714D0052055
:100F400084F835002068016821F0010101600098F3
:100F5000401C0090B84203D820680068C007F6D152
:100F600084F8349084F83580E16C002910D001B009
:100F70002046BDE8F04308470168C905D5D401689B
:100F800021F01001016084F8349084F83580CCE7BA
:100F9000BDE8F8833C0000202DE9F041044600F054
:100FA00099F906465CB1002584F83450022084F893
:100FB00035002068016821F0010101600DE0012089
:100FC000BDE8F08100F086F9801B052805D92020B6
:100FD0006065032084F83500F2E720680068C007E8
:100FE000F0D12268116820480140D4E90103184378
:100FF000D4E903363343184363691843A36918439C
:10100000E3691843236A18430843616A042903D13A
:10101000D4E90B1319430843106020684069666ADD
:1010200020F0070130460E43012704280CD1A06AA6
:101030000643E06A40B12046FFF7F6F920B14020B0
:10104000606584F83570BAE7206846612046FFF78E
:10105000D7F994F85C203F2191408160656584F860
:1010600035700020ACE700003F8010F02DE9F04122
:101070000446866D90F83400002501280DD001202B
:1010800084F8340094F835700020012F07D084F8DC
:10109000340002252846BDE8F0810220FBE7022744
:1010A00084F8357060652046FFF7E8F994F85C1025
:1010B0003F208840B0602068016841F0160101605F
:1010C000206C20B12068016841F0080101602068AF
:1010D000016841F001010160DCE7000070B50446E1
:1010E00000F0F8F80546601C02D00448007804447B
:1010F00000F0F0F8401BA042FAD370BD3000002091
:101100002DE9F84F00224FF0010803254FF00F0E94
:101110000B6808FA02F42340A3426ED14E68012EF8
:1011200005D0022E03D0112E01D0122E12D18668C6
:101130004FEA420C05FA0CF7BE43CF6807FA0CF7EA
:10114000374387604668A6430C79C4F30014944083
:1011500034434460C668570005FA07FC8C6826EAE9
:101160000C06BC403443C4604C68022C01D0122CE5
:1011700013D1D40800EB8404A346D4F8209054077C
:101180004FEAD46A0EFA0AF629EA06090E6906FA47
:101190000AF646EA0906CBF8206004680E7924EACC
:1011A0000C0406F00306BE40264306604C68E400CB
:1011B0006FD53B4C266846F480462660246822F0B2
:1011C000030604F480440094364C3444A446D4F816
:1011D00008489607360F0EFA06F7BC43324FB8425E
:1011E00001D100272EE0314FB84201D1012729E07B
:1011F0002F4FB84202D1022724E04AE02D4FB842D7
:1012000001D103271EE02C4FB84201D1042719E079
:101210002A4FB84201D1052714E0294FB84201D125
:1012200006270FE0274FB84201D107270AE0264FD3
:10123000B84201D1082705E0244FB84201D109275F
:1012400000E00A27B7402743CCF80878204E3468DE
:101250004F689C43FF0300D51C4334601C4E361D71
:1012600034684F689C43BF0300D51C433460184E5C
:10127000083634684F689C43FF0200D51C43346035
:10128000134E0C3634684F689C43BF0200D51C4394
:101290003460521C102AFFF43BAFBDE8F88F000009
:1012A0004438024000300140000002400004024087
:1012B00000080240000C02400010024000140240EE
:1012C00000180240001C024000200240002402409E
:1012D000003C014001488068704700003000002059
:1012E0000248816802781144816070473000002014
:1012F0000B4810B5016841F400710160016841F4C8
:1013000080610160016841F480710160032000F098
:101310006FF8002000F006F800F024F8002010BD5F
:10132000003C024070B50D4D04464FF47A712878A8
:10133000B1FBF0F00A490968B1FBF0F000F004FBE2
:1013400048B9102C07D200222146501E00F030F878
:1013500000206C6070BD012070BD000030000020D6
:101360003C0000200A4808B5016841F48041016052
:10137000006800F4804000900548001F016841F0BB
:1013800080510160006800F08050009008BD0000AE
:1013900044380240002809DB00F01F02012191407F
:1013A0004009800000F1E020C0F800117047000003
:1013B000F0B40E4B1B680C46C3F30223C3F10705C0
:1013C000042D00D90425191D072901D2002300E0AE
:1013D000DB1E012606FA05F1491E214099409E4078
:1013E000761E16403143F0BC01F081B90CED00E0EF
:1013F000064900F0070208684FF6FF03184040EA6C
:101400000220034A10430860704700000CED00E022
:101410000000FA052DE9F0470E46050065D0DFF81B
:101420001481D8F80000F7B200F00F00B04207D2E4
:1014300088F80070D8F8000000F00F00B04254D1D6
:1014400028683D4C810712D5400703D5206840F439
:10145000E05020602878000703D5206840F4604001
:1014600020602068A96820F0F000084320602878F8
:10147000C0072DD0304968680839012812D00228E9
:1014800013D0032811D00968890700292DDA2168B3
:1014900021F0030101432160FFF71CFF814641F267
:1014A000883A0EE009688903EFE709688901ECE7EB
:1014B000FFF710FFA0EB0901514502D90320BDE859
:1014C000F0872068696800F00C00B0EB810FEFD165
:1014D000D8F80010404601F00F01B14207D907705B
:1014E000006800F00F00B04201D00120E7E7287843
:1014F000400705D52068E96820F4E05008432060E3
:101500002878000706D52068296920F4604040EA61
:10151000C100206000F038F82168084AC1F30311C7
:10152000515CC8400649086006480068FFF7FAFEAB
:101530000020C4E7003C024008380240AC29000803
:101540003C00002034000020044805490068096878
:10155000044AC1F38221515CC84070473C0000201E
:1015600008380240BC290008044805490068096899
:10157000044AC1F34231515CC84070473C0000202E
:1015800008380240BC290008154810B5006810F062
:101590000C02144813D01449042A0FD0082A0ED183
:1015A0000F4C241F2268236802F03F025B0207D51C
:1015B0002068C0F38810A0FB010106E0084610BDBA
:1015C0002168C1F38811A1FB00010023FEF70AFE88
:1015D0002168C1F30141491C4900B0FBF1F010BD85
:1015E000083802400024F400001BB7002DE9F84F32
:1015F00004006ED02078DFF83C93C007A9F1040501
:101600004AD009F104000168C1F38101012908D021
:101610000068C0F3810002280AD1D9F80000400216
:1016200006D52868800337D560680028E1D033E00C
:101630006068B0F5803F10D0B0F5A02F286810D0BA
:1016400020F480302860286820F4802028606068BA
:10165000A8B1FFF73FFE06460DE0286840F4803051
:10166000F4E740F480202860F7E700BFFFF732FE80
:10167000801B642873D828688003F7D50CE0FFF737
:1016800029FE064605E000BFFFF724FE801B642804
:10169000F0D828688003F7D42078DFF89C82800790
:1016A0004FF0000A3ED5A348001D016811F00C0F51
:1016B00008D00068C0F3810002280BD1D9F80000DF
:1016C000400207D42868800716D5E068012800D1B9
:1016D00012E02BE1E068B8B10120C8F80000FFF784
:1016E000F9FD064605E000BFFFF7F4FD801B022868
:1016F000C0D828688007F7D52868216920F0F8004D
:1017000040EAC10028600DE0C8F800A0FFF7E2FD44
:10171000064604E0FFF7DEFD801B02281FD828687C
:101720008007F7D42078000722D5824E834861696C
:10173000703671B101210160FFF7CCFD074604E06E
:10174000FFF7C8FDC01B022809D830688007F7D50D
:101750000EE0C0F800A0FFF7BDFD074605E082E0FF
:10176000FFF7B8FDC01B02287DD830688007F7D48A
:101770002078400768D5DFF8BCB100270BF13C0B9F
:10178000DBF80000C0000BD4DBF8001041F0805102
:10179000CBF80010DBF80000012700F0805000902B
:1017A000674E3068C00510D4306840F480703060F7
:1017B000FFF790FD009005E0FFF78CFD0099401ABF
:1017C000022850D83068C005F6D55A4EA0686C364D
:1017D00001280FD00528306810D020F001003060BB
:1017E000306820F004003060A068B8B1FFF772FDE7
:1017F00000900FE0306840F00100F4E740F0040092
:101800003060F7E7FFF766FD0099411A41F2883032
:10181000814266D830688007F4D50EE0FFF75AFDA4
:10182000009007E0FFF756FD0099411A41F2883019
:10183000814256D830688007F4D42FB1DBF800100D
:1018400021F08051CBF80010A069C8B33949091DB7
:101850000968C1F3810102294AD00228504607D005
:10186000C8F8600000E03CE0FFF734FD04463BE0D0
:101870004746C8F86000FFF72DFD064605E000BFAB
:10188000FFF728FD801B02282BD828688001F7D499
:10189000D4E907010843A16A2A4A490802EB014139
:1018A000626A41EA8211084394F82C1040EA01610F
:1018B000C9F8001001203866FFF70CFD044606E069
:1018C00036E000BFFFF706FD001B022809D8286894
:1018D0008001F7D52CE000BFFFF7FCFC001B0228BD
:1018E00002D90320BDE8F88F28688001F4D41FE0F6
:1018F0000128F7D0D9F80000E26900F48001914294
:1019000014D1226A00F03F0191420FD147F6C07115
:10191000626A0140914209D1A26A00F440319142C9
:1019200004D1E16A00F07060884201D00120D9E75B
:101930000020D7E70438024000004742800E4742AB
:10194000007000400000FFFF10B5401EB0F1807F26
:1019500001D3012010BD4FF0E02460610F2160171A
:1019600000F0C5FE0020A06107202061002010BD0E
:101970007047704770B590F83C20012A32D001249E
:1019800080F83C40022280F83D2003685A689D6838
:1019900022F070060A6832435A60134B02689A427A
:1019A00014D0B2F1804F11D0104B9A420ED0104B90
:1019B0009A420BD00F4B9A4208D00F4B9A4205D057
:1019C0000E4B9A4202D00E4B9A4204D1496825F040
:1019D00080031943916080F83D40002180F83C105D
:1019E000084670BD022070BD0000014000040040A8
:1019F00000080040000C004000040140004001408D
:101A00000018004010B5040003D094F83D0010B158
:101A100007E0012010BD002084F83C00204600F0C3
:101A20000DF8022084F83D00211D206800F052FCD2
:101A3000012084F83D00002010BD000008B50068BA
:101A40000B49884212D10B48016841F02001016026
:101A50000068002200F02000009007213720FFF7E7
:101A6000A7FCBDE808403720FFF794BC08BD000084
:101A700000140040403802400168CA6842F0010288
:101A8000CA600068816801F00701062903D0016877
:101A900041F00101016000207047704770B50446B5
:101AA000006801694FF00005C943890715D4C16872
:101AB000C943890711D4E91E0161012020772068FC
:101AC00080698007204602D0FFF7E7FF04E000F0BE
:101AD00098F8204600F096F8257720680169C943F8
:101AE000490717D4C168C943490713D46FF00401EB
:101AF0000161022020772068806910F4407F204631
:101B000002D0FFF7CAFF04E000F07BF8204600F0A7
:101B100079F8257720680169C943090716D4C16897
:101B2000C943090712D46FF008010161042020772E
:101B30002068C0698007204602D0FFF7AEFF04E0AE
:101B400000F05FF8204600F05DF825772068016915
:101B5000C943C90617D4C168C943C90613D46FF075
:101B600010010161082020772068C06910F4407FCF
:101B7000204602D0FFF791FF04E000F042F8204633
:101B800000F040F8257720680169C943C90708D1EA
:101B9000C168C943C90704D1891E0161204600F00C
:101BA00033F820680169C943090609D4C168C943EB
:101BB000090605D46FF0800101612046FFF7D8FEC9
:101BC00020680169C943490609D4C168C943490667
:101BD00005D46FF040010161204600F01FF8206835
:101BE0000169C94389060BD4C168C943890607D472
:101BF0006FF0200101612046BDE87040FFF7B9BEDB
:101C000070BD70477047000000680349884201D1E9
:101C100000F04ABE70470000001400407047704753
:101C200070B5026804461068D168536910F00F0F50
:101C300052D003F0010501F490762E435FD0C20725
:101C400005D0CA0503D5E26B42F00102E263420708
:101C500005D5DA0703D0E26B42F00202E2638207A5
:101C600005D5DA0703D0E26B42F00402E263020713
:101C700007D501F020022A4303D0E26B42F00802AC
:101C8000E263E26B002A33D0800604D5880602D5D1
:101C9000204600F0E3FB20684069E16BC0F3801050
:101CA000090700D428B3204600F0C1FB2068416931
:101CB00049061AD5416921F040014161606BA0B12C
:101CC0001B490165606BFFF784F8002810D0606B3A
:101CD000016DBDE870400847830610D58B060ED510
:101CE0002046BDE8704000F0B9BB2046FFF797FFE3
:101CF00070BD2046FFF793FF0020E06370BD030630
:101D000006D50B0604D52046BDE8704000F086BC21
:101D10004006F3D54806F1D5D168204621F04001B0
:101D2000D160202184F8391000F010F970BD000056
:101D30009D23000870B5040004D094F839000025F4
:101D400010B106E0012070BD84F83850204600F044
:101D500023F8242084F839002068C16821F4005158
:101D6000C160204600F0C6FB2068016921F4904163
:101D700001612068416921F02A0141612068C16840
:101D800041F40051C160E563202084F8390084F8F3
:101D90003A00002070BD00002DE9F04387B00646F0
:101DA00014216846FEF768FA404F31684048022225
:101DB000032308250024B9421FD13D4910310C6886
:101DC00044F080440C60096801F08041059101688D
:101DD00041F010010160006802AC00F010000590B5
:101DE000D801CDE90002012084E829006946314884
:101DF000FFF786F907B0BDE8F0832F4FB942F9D15C
:101E00002B4914310F6847F020070F60096801F073
:101E100020010591016841F00401016000686946F4
:101E200000F004000590C0208DE81500CDE90335D1
:101E30002248FFF765F9234D21484FF02067E5E878
:101E4000020740204FF48069A5E811024FF40038E2
:101E500045F814491B48AC61C5E907486C62FFF7B7
:101E60009BF808B1FEF72AFC3563AE63154D1448A4
:101E7000603578382860C5E90174C5E903496C61AB
:101E8000AC61C5E9074828466C62FFF785F808B1E0
:101E9000FEF714FC7563002211464720AE63FFF77E
:101EA00087FA4720FFF776FAA4E7000000780040A1
:101EB0003038024000100240001401400008024087
:101EC000A0640240640200207047000070B5044620
:101ED00090F83900202830D169B362B394F8380003
:101EE00001282AD0012084F838002162A284E284EB
:101EF0000025E563212084F83900236B1048D8635E
:101F0000236B10481864236B0F48D864206B13466A
:101F100005652668206B321DFFF7A8F821686FF071
:101F20004000086084F838502068416941F0800121
:101F30004161002070BD012070BD022070BD000015
:101F4000F723000825240008AD23000870477047D8
:101F5000FEE700000F4810B50D4901600721416000
:101F600000214FF400328160C0E90312D2004261C7
:101F70000176012242768276C27601774177FEF7BA
:101F800026FE002803D0BDE81040FEF797BB10BD29
:101F9000006400407C0100200D4808B5016841F450
:101FA000800101600068002200F48000009011466A
:101FB0003920FFF7FDF93920FFF7ECF9002211462F
:101FC0004520FFF7F5F9BDE808404520FFF7E2B9E5
:101FD00030380240154808B5016841F080010160C1
:101FE000016801F080010091016841F01001016079
:101FF000016801F010010091016841F004010160E5
:10200000016801F004010091016841F001010160E3
:10201000016801F001010091016841F008010160CF
:10202000006800F00800009008BD00003038024051
:102030001CB500240F4800940D4901940160532100
:10204000C0E9011440F2E731C16080218161FFF7EE
:10205000D9FC08B1FEF732FB0094694605480194AB
:10206000FFF788FC002801D0FEF728FB1CBD00000C
:1020700000140040A40100200C4810B50A4901607A
:102080004FF4E1314160002181600C22C160C0E960
:1020900004128161C161FFF74DFE002803D0BDE845
:1020A0001040FEF70BBB10BD00780040E40100209B
:1020B0000C4810B50A4901604FF4E131416000213C
:1020C00081600C22C160C0E904128161C161FFF727
:1020D00031FE002803D0BDE81040FEF7EFBA10BD76
:1020E00000140140240200200FB41C4A30B5BDF892
:1020F0000D1006984BBAA0F2052000EB400122F823
:102100003130BDF80F0043BA02EBC1004380BDF887
:1021100011305BBA83809DF81330837132F831300F
:1021200004891C1B0E4B9C4202DA048A641C048244
:10213000048932F83150641B9C4202DA038A5B1E28
:10214000038232F83130B0F9104003EB4433C360FE
:1021500032F83110018130BC5DF814FB64040020BA
:1021600090E8FFFFFEE770477047C0E90D12183096
:1021700080EC030A7047000000B5014680EC020ABB
:1021800030EE600A80ED020AFDEEC00A2448C0ED80
:10219000000AD1ED030A234830EE601A81ED041ADB
:1021A000D1ED060A60EE800AC1ED090AD1ED0A0AF6
:1021B000D1ED071A41EE800AC1ED0A0A91ED080A35
:1021C00021EE000A81ED0B0ABDEEE00A80ED000A67
:1021D00091ED0E0A01F12800B8EE400A00F0A6FACF
:1021E00091ED0A0A1048FDEEC00AC0ED000AD1EDDB
:1021F000090A01F1300030EE800AD1ED0B0A30EE11
:10220000200A81ED0C0A91ED0D0AB8EE400A00F0AB
:102210008DFA91ED020A81ED030A91ED0C0A00BDE1
:102220002800002040000020240000207047FFF715
:1022300057B8000030B593B030216846FEF71CF85F
:1022400014210CA8FEF718F819480025016841F080
:1022500080510160006800F08050119015480168BD
:1022600041F4404101600068022400F440401190B4
:1022700001200090000401908001CDE90640062075
:102280000890A820CDE9090404200B906846FFF7C8
:10229000ADF90CA90F2081E831004FF4A0500F9048
:1022A000E002109005210CA8FFF7B4F813B030BD80
:1022B00040380240007000400248016841F470015B
:1022C0000160704788ED00E00148FFF7E7BB0000C0
:1022D000A4010020F0B50268254C264D264E274F5C
:1022E000274B4FF0804CA04209D0604507D0A84250
:1022F00005D0B04203D0B84201D0984204D122F0B8
:10230000700E4A6842EA0E02A0421BD0604519D006
:10231000A84217D0B04215D0B84213D0984211D07D
:10232000184DA8420ED0184DA8420BD0174DA84208
:1023300008D0174DA84205D0164DA84202D0164D20
:10234000A84203D122F44075CA682A434D6922F09D
:1023500080022A4302608A68C2620A688262A042DE
:1023600001D0984201D10969016301214161F0BDA9
:10237000000001400004004000080040000C004044
:102380000004014000400140004401400048014079
:1023900000180040001C00400020004010B5806B79
:1023A0000021C185C184FFF73AFC10BD70B5846B74
:1023B0002068406994F83910C0F3C0100025212925
:1023C00004D118B1E584204600F03FF82068406948
:1023D00094F83A10C0F38010222904D118B1E58591
:1023E000204600F024F8E06B40F01000E063204647
:1023F000FFF715FC70BD10B50146806B09680968D0
:10240000C9050CD40021C18401684A6922F0800208
:102410004A610068C16841F04001C16010BDFFF72A
:1024200095FD10BD10B5806BFFF791FD10BD0168E3
:10243000CA6822F49072CA6001684A6922F00102F7
:102440004A61202180F83A1070470168CA6822F07A
:10245000C002CA60202180F83910704710B590F88A
:102460003A10222901D0022010BD8168B1F5805FA9
:1024700011D00169002901681FD0496801F07F036C
:10248000816A4A1C82620B70C18D491E0904090CC5
:10249000C18518D02BE00269816A002A026852685F
:1024A00005D0D2B20A80816A491C8162ECE7C2F38E
:1024B00008020A80816A891CF7E74A68816A4B1C16
:1024C00083620A70E0E70168CA6822F02002CA60ED
:1024D0000168CA6822F48072CA6001684A6922F001
:1024E00001024A61202180F83A10FFF7EDFC00203C
:1024F00010BD00002DE9F041044600680169E26862
:1025000021F44051114301612169A068E269084347
:102510006169114308432168CA6849F20C639A4310
:102520000243CA6020684169A26921F440711143E5
:102530004161E069192764253226B0F5004F354A1C
:10254000354920684FF0000806D0884201D09042FB
:1025500036D1FFF709F835E0884201D0904202D128
:10256000FFF702F801E0FEF7EFFF61684A18A0FBF1
:10257000070148EB0803FDF735FE0146B0FBF5F017
:102580000201B1FBF5F06FF01803584301EB800036
:1025900006EBC000B0FBF5F000F0F80002EB4002E3
:1025A000B1FBF5F0584301EB800006EBC000B0FB37
:1025B000F5F000F00700216810448860BDE8F08164
:1025C000FEF7C2FF61688B0F8A00A0FB0701FDF7D1
:1025D00009FE0146B0FBF5F06FF01802504301EB25
:1025E000800006EB0010B0FBF5F000F0F002B1FB4C
:1025F000F5F002EB0012B1FBF5F06FF01803584351
:1026000001EB800006EB0010B0FBF5F000F00F00CE
:10261000D1E70000001401400010014090F839108B
:10262000212901D0022070478168B1F5805F016ADD
:102630000BD04A1C0262026809785160C18C491EA5
:102640000904090CC1840ED017E009880268C1F39F
:102650000801516001690029016A02D0491C016228
:10266000ECE7891CFBE70168CA6822F08002CA60B7
:102670000068C16841F04001C1600020704700005F
:1026800038B5164800680168154CC943890608D456
:102690004268144B61785A54491C6170406820703C
:1026A00016E00168C943C90612D4016800254068D4
:1026B00000900C48FDF738FF657020780A493028F3
:1026C00002D0312802D003E00D6001E00120086053
:1026D000BDE838400148FFF7A3BA000024020020FB
:1026E0002C0000202403002008000020FEE709073A
:1026F000090E002804DB00F1E02080F80014704788
:1027000000F00F0000F1E02080F8141D704702E097
:1027100008C8121F08C1002AFAD17047704700206C
:1027200001E001C1121F002AFBD17047D0ED000A61
:10273000F4EEC00AF1EE10FA01DD80ED000AD0EDF2
:10274000000AB1EE400AF4EEC00AF1EE10FA01D22E
:1027500080ED000A704700002DED028BFEF7C8FDEA
:10276000FFF768FDFFF736FCFFF716FCFFF7A0FC4C
:10277000FFF782FCFFF7EEFBFFF75AFC00223DA1BA
:102780003E48FDF74BFF3E480168CA6842F0200210
:10279000CA600068C16841F01001C160FDF7CAFD60
:1027A0003848FFF769F9354C42F210711C3C04F1CE
:1027B0000C033548A26993EC030AFFF7D6FC9FEDA2
:1027C000338A31484FF4FA6240F6B831B0EE481A15
:1027D000F0EE480A9FED2E0A3C30FFF7C6FC04F1EC
:1027E0000C034FF47A6193EC030A2A48A269FFF7BD
:1027F000BCFC42F6673247F24811B0EE481AF0EEE0
:10280000480A9FED250A2548FFF7AFFC244D254EC9
:10281000606801282AD1B5F91A0000EE100A0120DB
:10282000B8EEC00AFDF70EFF94ED020A0220B8EEE2
:10283000C00AFDF707FFB4F90010032000EE101ADC
:10284000B8EEC00AFDF7FEFE95ED090A0420B8EEC9
:10285000C00AFDF7F7FE3188052000EE101AB8EE29
:10286000400AFDF7EFFE0520FDF718FF2320FEF7D5
:1028700035FCCDE76572725F696E74002000002040
:1028800024020020A4010020AC030020000000006E
:102890009A99993EC40400209A99B94000050020F5
:1028A000640400204400002070B51E484FF47A6193
:1028B00002681D4890ED001A1C48D0ED000A1C4823
:1028C00090ED000A1B48FFF750FC1B4D1B4C95ED8B
:1028D000090A2088F8EEC00A00EE100A1548B8EE82
:1028E000400AFFF749FCBDEEC00A154880ED000A1A
:1028F000B5F91A00B8EEC00A00EE900A0D48F8EEDD
:10290000E00A3C30FFF738FCBDEEC00A00231A464F
:1029100010EE100A6060BDE8704001B21846FDF785
:10292000D9BE00001C000020180000201400002068
:1029300010000020C4040020640400204400002093
:102940000C00002001000000020000000400000054
:10295000010000000200000004000000040000006C
:10296000010000000100000002000000040000005F
:10297000010000000200000004000000040000004C
:10298000010000000100000002000000040000003F
:10299000010000000200000004000000040000002C
:1029A00001000000000610160006101600000000CE
:1029B00000000000010203040607080900000000EF
:1029C00001020304E4290008000000204C0000007C
:1029D0000E270008302A00084C000020F4080000F0
:1029E0001E27000800000000000000000100000099
:1029F00000000000000000000000000000000000D7
:102A000000000000000000000000000000000000C6
:102A100000000000010000001000000000000000A5
:102A20000024F4000000000064000000000000002A
:04000005080001AD41
:00000001FF
