:020000040800F2
:10000000600A0020C10100083B260008C92300083F
:10001000392600084D070008312D000800000000B7
:10002000000000000000000000000000652800083B
:10003000C10A000800000000A12700086728000886
:10004000DB010008DB010008DB010008DB01000820
:10005000DB010008DB010008DB010008DB01000810
:10006000DB010008DB010008DB010008DB01000800
:10007000DB010008DB010008DB010008DB010008F0
:10008000DB010008DB010008DB010008DB010008E0
:10009000B9070008DB010008DB010008DB010008EC
:1000A000DB010008DB010008DB010008DB010008C0
:1000B000DB010008DB010008DB010008DB010008B0
:1000C000DB010008DB010008DB010008DB010008A0
:1000D000DB010008B92C0008DB010008DB01000887
:1000E000DB010008DB010008DB010008DB01000880
:1000F000DB010008DB010008DB010008DB01000870
:10010000DB010008DB010008DB010008DB0100085F
:10011000DB010008DB010008DB0100080129000801
:10012000DB010008410800084D080008DB01000859
:10013000DB010008DB010008DB010008DB0100082F
:10014000DB010008DB010008DB010008DB0100081F
:10015000DB01000859080008DB010008C52C000875
:10016000DB010008DB010008DB010008DB010008FF
:10017000DB010008DB010008DB01000800000000D3
:10018000DB010008DB010008DB010008DB010008DF
:10019000DB010008DB010008DB010008DB010008CF
:1001A0000000000000000000DB010008DFF80CD0B8
:1001B00000F0BAFA004800479D2D0008600A0020B0
:1001C0000648804706480047FEE7FEE7FEE7FEE7F1
:1001D000FEE7FEE7FEE7FEE7FEE7FEE7F1280008A0
:1001E000AD0100082DE9F05F0546002092469B46D0
:1001F00088460646814640241BE02846414647463D
:10020000224600F012FA53465A46C01A914110D3C2
:1002100011461846224600F0F9F92D1A67EB01083D
:100220004F4622460120002100F0F0F917EB0009AB
:100230004E41201EA4F10104DFDC484631462A4627
:100240004346BDE8F09F40EA01039B0703D009E065
:1002500008C9121F08C0042AFAD203E011F8013BB2
:1002600000F8013B521EF9D27047D2B201E000F80B
:10027000012B491EFBD270470022F6E710B513464A
:100280000A4604461946FFF7F0FF204610BD421CFF
:1002900010F8011B0029FBD1801A70472DE9FE4F91
:1002A000804681EA0300C00F0C46009021F0004117
:1002B00023F00045B8EB0200A94105D24046214693
:1002C00090461C460B46024623F00040104347D0A0
:1002D000270DC7F30A00C3F30A510290401A019098
:1002E00040286BDAC3F3130040F4801B0098924659
:1002F00020B10023D2EB030A63EB0B0B01985946A4
:10030000C0F14002504600F081F906460D465046C5
:100310005946019A00F099F910EB08006141002458
:1003200087EA115284EAE7731A4340D0009A62B315
:10033000019A012A4FEA075215DC001B61EB02010A
:100340004FF0004202EA0752CDE90042001C41F59D
:10035000801132462B4600F099F903B0BDE8F08FCA
:1003600040462146F9E7001B61EB0201001C41F504
:10037000801300185B412018A2F5001747EB03011A
:1003800040EAD570B6196D4111E06D084FEA3606A6
:1003900045EAC0754FEA0752001B61EB0201001CE1
:1003A00041F5801149084FEA3000001951413246A9
:1003B0002B4603B0BDE8F04F00F059B90098012278
:1003C00040000023D0EB020263EBE073009821466B
:1003D0004FEAE074B8EB000061EB0401E9E783F059
:1003E00000435BE781F0004158E72DE9FE4F81EAC9
:1003F000030404F0004421F0004100944FF0000B8E
:1004000023F0004350EA01045ED052EA03045BD0BB
:10041000C3F30A54C1F30A552C44A4F2F3340194F3
:10042000A0FB0254C1F3130141F48011C3F3130381
:1004300043F4801301FB024400FB034E840A970A35
:1004400044EA815447EA8357A4FB076802958D0A62
:1004500005FB07854FEA932C04FB0C542705029DEE
:100460004FEA065847EA1637B5EB08056EEB070C5E
:10047000870E920E47EA811742EA8312A7FB020118
:10048000B6EB0B0164EB00042B0D43EA0C335E1852
:1004900044EB1C50DA465146E7FB0201C5F3130456
:1004A0004FEA0B3343EA14534FEA0432019C43EA08
:1004B0000603A4F10C040294009CCDE900B400F002
:1004C000E5F803B0BDE8F08F00200146F9E72DE91B
:1004D000F04D81EA030404F0004B21F0004514467E
:1004E0004FF0000A23F0004150EA050220D054EA00
:1004F00001021DD0C5F30A570246C5F31303C1F329
:100500001300C1F30A5640F4801543F48013A7EB9F
:100510000608101BD64608F2FD3873EB050002D31F
:1005200008F1010801E092185B41B8F1000F03DA0D
:1005300000200146BDE8F08D00204FF480110646F2
:1005400084460EE0171B73EB050705D3121B63EB04
:10055000050306434CEA010C49084FEA30009218A3
:100560005B4150EA0107EDD152EA030012D082EA62
:10057000040083EA0501084305D0101BAB4106D2F5
:100580000122002306E000224FF0004302E06FF05A
:10059000010253101AEB06004CEB085110EB0A0055
:1005A00041EB0B01BDE8F04D00F061B80EB5C10F95
:1005B00080EAE0700844CA07002140F233438DE826
:1005C0000E000A460B4600F061F803B000BD70B59E
:1005D000C1F30A5201F000450024C1F3130140F2B7
:1005E000FF3341F480119A4201DA002070BD40F2DD
:1005F00033439A42A2F2334203DC524200F015F830
:1006000000E090402C43F1D0404270BD202A04DB32
:10061000203A00FA02F1002070479140C2F1200315
:1006200020FA03F3194390407047202A04DB203A54
:1006300021FA02F00021704721FA02F3D040C2F102
:1006400020029140084319467047202A06DBCB1749
:10065000203A41FA02F043EAE07306E041FA02F37D
:10066000D040C2F12002914008431946704710B5AE
:10067000141E73F1000408DA401C41F100019218C5
:100680005B411A4301D120F0010010BD2DE9F04D6E
:1006900092469B4611B1B1FA81F202E0B0FA80F2C3
:1006A00020329046FFF7B2FF04460F4640EA0A00A8
:1006B00041EA0B0153465A46084313D0114653EA08
:1006C000010019D0C8F140025046FFF7AEFF0546C1
:1006D0000E46504659464246FFF798FF084305D05C
:1006E000012004E020463946BDE8F08D0020054396
:1006F00046EAE0762C4337430A986305E40AA0EB08
:1007000008000022FD0A44EA47540A3002D50020BE
:100710000146E9E7010510196941DDE908450019BD
:100720006941BDE8F04DA2E7064C074D06E0E068E0
:1007300040F0010394E8070098471034AC42F6D328
:10074000FFF738FD5030000870300008FEE7000069
:100750000FB4002010B50121CDE908010A910690DF
:1007600007900B90029003900490059002A9034813
:1007700000F0F2FA10BC5DF814FB0000B401002098
:1007800000B587B018220A496846FFF75CFD0848A3
:1007900010380FC8FFF7DCFF064800F0A1FC054841
:1007A0000068416941F00201416107B000BD0000ED
:1007B0002C040020B4010020144800B5006891B05A
:1007C000406980071FD501208DF818000DF119032D
:1007D00009AA00210D4800F045FB0D4909980A6857
:1007E000521C0A60A0F5007105390AD118220AA925
:1007F0006846FFF728FD0DF1180C9CE80F0001F08A
:10080000DDFE02F065FB11B000BD0000B401002068
:100810000400002030B41446084A1D4661B15460FB
:10082000916000210823C2E9031311752A4630BCE8
:100830000123024900F02CBA1460F1E744040020BF
:10084000014800F08BBC00009C030020014800F030
:1008500085BC0000DC020020014800F07FBC0000E5
:100860003C03002001681823CAB2103AB2FBF3F22D
:10087000054B6FF30901032A9B5CC36500D9091D71
:1008800081650846704700003030000810B5014609
:1008900000208B698A6A4FF0C07453B1B3F5005FD2
:1008A00015D072B1012A0CD0022A0AD0032A09D12C
:1008B00004E01AB1012A06D0022A03D1C96AC9018B
:1008C00000D5012010BDC96AA142FAD010BD002A8E
:1008D000F7D0012AF2D0022AF3D0032AF3D010BDB8
:1008E00030B50468256825F48025256004686360B8
:1008F0008368402B036803D099600068C26030BDF4
:100900009A600068C16030BD2DE9F04100282DEDEE
:10091000068B7FD001884D4CC1F30A0525804178B4
:100920008278C90841EA4211C1F30A0363808178E1
:10093000C278890941EA82010279A5F5806541EA18
:100940008221C1F30A02A28001794679490841EA6D
:10095000C611C1F30A01E1804679A3F58063B609A7
:1009600026724779A2F58062C7F301176772C788BC
:10097000A7810789E78147892782077BA774477B7F
:10098000E774C789A782008AE78AC0F30A007F1C40
:10099000E78225806380A280A1F58061E180A0F5D7
:1009A0008060002714356081282D00D827801433FB
:1009B000282B00D867801432282A00D8A780143149
:1009C000282900D8E7801430282800D86781204DD6
:1009D0009FED20AB9FED219B032E04D0012E04D070
:1009E000022E1BD004E01F4801E044F6206028607E
:1009F000B4F90200FFF7DAFD53EC1A2BFFF767FD9D
:100A000053EC192BFFF7F1FCFFF7E1FD164900E06D
:100A100000E00860BDEC068BBDE8F081B4F9000091
:100A2000FFF7C4FD53EC1A2BFFF751FD53EC192BC4
:100A3000FFF7DBFC41EC180B2868FFF7B7FD53EC20
:100A4000182BFFF72BFCFFF7C2FDD0E75C0000205E
:100A5000800000200000000000A084400000000092
:100A600000C07240E0B1FFFF0C00002038B5044622
:100A700000680168C9061ED5C168C9061BD5016892
:100A800040680090606B0068016821F0010101601E
:100A9000606B00684068042803D10748C1690748B3
:100AA0008847616B162009684860606B00680168C0
:100AB00041F00101016038BD5C0000209C05002070
:100AC0007047000070B50646007890B0DB281DD155
:100AD0007078354CDB21D8B104F1140502281FD001
:100AE000042839D0062811D1B47820222F4968462D
:100AF000FFF7A9FB04EB440005EB800155F820004B
:100B0000097A5DF82120F11CFFF79DFB10B070BD44
:100B1000217001206070264803220078A07014E044
:100B2000B078217003216170A07000EB400005EBEC
:100B30008006307AE0707068FFF7A9FBC5B26A1CC6
:100B4000201D7168FFF77FFB6A1D10B01649BDE8D4
:100B50007040184801F0F6BBB6782170052060702F
:100B60001249A670202240396846FFF76CFB06EB5D
:100B7000460005EB8006317A5DF8212055F82010FB
:100B8000E01CFFF760FB09492022203908A8FFF785
:100B90005AFB307A08A931F820000349C01C82B200
:100BA000044801F0CFFBB1E78400002010300008BA
:100BB000000000209C02002070B5074C074D2378F0
:100BC00003EB43065B1C45F8260005EB86004160FD
:100BD0000272237070BD0000000000209800002009
:100BE00001B50A282DED020B12D8002810D00B28D1
:100BF0000ED2DFE800F00D06080E10121416181AB7
:100C00001C00012200E005220A49684600F015F8A0
:100C10000EBD0922F8E70D22F6E71122F4E71522AE
:100C2000F2E71922F0E71D22EEE72122ECE7252268
:100C3000EAE7000088010020704703788B541144D4
:100C400043784B7082788A70C078C8707047000013
:100C50001CB5040A8DF800408DF80100080A8DF8D3
:100C60000200100A8DF804008DF80520180A8DF88E
:100C700006008DF803108DF807306B4640F2FF1226
:100C800000210248FFF7C6FD1CBD0000B401002092
:100C9000F0B590F820500468A468012D05D0022D0D
:100CA00003D0416A41F4802153E014F0406F01D138
:100CB000E5004BD5C4F30164022C03D9416A41F429
:100CC000000146E00125A5401D608D684FF4C0730A
:100CD0009DB1CE6835434E6845EAC605066803EB0C
:100CE0000417F5514FF4C275076805EB04150E693A
:100CF0007E51097D012905D009E00E88CD6845EABD
:100D00004655EBE701684E5946F480764E5111790D
:100D1000D2F805504FF4C67641EA0525016806EB86
:100D200004168D511178D2F801204FF4C47541EAB0
:100D30000221026805EB04155151006803EB041110
:100D4000425842F0010242500020F0BD416A41F495
:100D5000001141620120F0BD10B590F82020012A59
:100D600007D0022A05D0416A41F480214162012066
:100D700010BD3B48D0F8002242F00102C0F800222A
:100D8000D0F8002222F47C52C0F80022D0F80022D1
:100D90004B6A42EA0322C0F800220A7D02F01F03D8
:100DA00001229A40D0F81C329343C0F81C32CB6920
:100DB000B3B9D0F80C329343C0F80C328C894B682D
:100DC00064F31F434C6900EBC404C4F840320C893F
:100DD0000B6864F31F434C6900EBC404C4F844324D
:100DE000CB69012B16D1D0F80C321343C0F80C326A
:100DF0000C884B6864F31F434C6900EBC404C4F8CF
:100E000040320C89CB6864F31F434C6900EBC40487
:100E1000C4F844328B69002BD0F804320ED013434F
:100E2000C0F804320B69002BD0F8143208D01343F9
:100E3000C0F81432096A012904D008E09343EFE7AF
:100E40009343F5E7D0F81C121143C0F81C12D0F8F8
:100E5000001221F00101C0F80012002010BD0000B6
:100E60000064004030B590F82040012C05D0022CE1
:100E700003D0416A41F480215DE00468002955D027
:100E80002469A40754D04FF4D874056804EB011406
:100E90002D5915F00405956005682D594ED0ED08C3
:100EA000556005682C5904F00204D4604FF4DA74DC
:100EB000056804EB01142D5905F00F05156105684F
:100EC0002D59C5F30725956105682C59240C5461EB
:100ED0004FF4DC72046802EB0112A4581C70046821
:100EE000A458240A5C700468A458240C9C700468FC
:100EF000A258120EDA704FF4DE72046802EB01128F
:100F0000A4581C710468A458240A5C710468A4588D
:100F1000240C9C710468A258120EDA71006881B129
:100F2000016941F020010161002030BDE468A8E7BB
:100F3000416A41F400114162012030BD6D0D156020
:100F4000AFE7C16841F02001C160EDE770B5040072
:100F500003D094F8200010B104E0012070BD2046B9
:100F600000F082F82068016821F00201016000F0C1
:100F700085FB0546052604E000F080FB401B0A289F
:100F800011D8206840688007F6D42068016841F0D5
:100F90000101016000F072FB05460BE000F06EFB02
:100FA000401B0A2806D9606A40F40030606284F869
:100FB0002060D2E720684068C007EFD0207E01287B
:100FC000206801683DD021F080010160607E012829
:100FD0002068016838D021F040010160A07E01281E
:100FE0002068016833D021F020010160E07E0128F3
:100FF000206801682ED041F010010160207F012897
:101000002068016829D021F008010160607F012873
:101010002068016824D021F004010160D4E90201B4
:101020000843D4E90412114308436168491E084388
:101030002168C86100206062012084F8200000203F
:1010400070BD41F08001C0E741F04001C5E741F0CB
:101050002001CAE721F01001CFE741F00801D4E7F1
:1010600041F00401D9E7000010B586B00446142110
:101070006846FFF701F917492068884227D11648CA
:101080000021026842F000720260006800F0007007
:10109000059011481038026842F0080202600068AA
:1010A000022200F0080005900320CDE90210CDE9EE
:1010B0000002092004906946084800F0F5F9002272
:1010C0000621142000F048FB142000F037FB06B086
:1010D00010BD00000064004040380240000C024097
:1010E00070B5044690F82000012804D0606A40F4EE
:1010F0000020606218E0022084F820002068016867
:1011000021F00101016000F0B9FA05460EE000BFD0
:1011100000F0B4FA401B0A2808D9606A40F4003095
:101120006062052084F82000012070BD20684068BE
:10113000C007EDD1606270BD90F83510022903D070
:101140008021416501207047052180F83510006835
:10115000016821F001010160002070472DE9F8438A
:1011600004464FF00009CDF8009063484FF4165143
:10117000A56D0068B0FBF1F72E6894F85C100820AC
:1011800000FA01F131420FD021680A6852070BD5ED
:101190000A6822F004020A6094F85C108840A86093
:1011A000606D40F00100606594F85C104FF001083C
:1011B00008FA01F0304208D021684969090604D5CF
:1011C000A860606D40F00200606594F85C10042037
:1011D0008840304208D021680968890704D5A86092
:1011E000606D40F00400606594F85C101020884049
:1011F000304218D021680968090714D5A860206812
:101200000168490304D50068000308D5A16C07E014
:101210000168C90503D4016821F008010160216C4F
:1012200009B12046884794F85C102020884030425D
:1012300031D021680968C9062DD5A86094F8350019
:1012400005282068016806D0490347D500680003D7
:101250001DD4616C1CE021F0160101602068416919
:1012600021F080014161206C08B9A06C20B1206898
:10127000016821F00801016094F85C103F2088406B
:10128000A86084F8349084F83580216D1FE0E16B0C
:1012900009B120468847606D00282BD0606DC007DB
:1012A00014D0052084F835002068016821F0010180
:1012B00001600098401C0090B84203D82068006884
:1012C000C007F6D184F8349084F83580E16C0029A9
:1012D00010D001B02046BDE8F04308470168C905B9
:1012E000D5D4016821F01001016084F8349084F8AD
:1012F0003580CCE7BDE8F883480000202DE9F041B7
:10130000044600F0BBF906465CB1002584F8345071
:10131000022084F835002068016821F00101016095
:101320000DE00120BDE8F08100F0A8F9801B052840
:1013300005D920206065032084F83500F2E7206895
:101340000068C007F0D12268116820480140D4E944
:1013500001031843D4E90336334318436369184340
:10136000A3691843E3691843236A18430843616A71
:10137000042903D1D4E90B131943084310602068F2
:101380004069666A20F0070130460E4301270428B1
:101390000CD1A06A0643E06A40B12046FFF776FA16
:1013A00020B14020606584F83570BAE72068466156
:1013B0002046FFF757FA94F85C203F219140816066
:1013C000656584F835700020ACE700003F8010F0C0
:1013D00070B5044690F83400002501280CD0012097
:1013E00084F8340094F835600020012E06D084F88B
:1013F00034000225284670BD022070BD022684F804
:10140000356060652046FFF76BFA2068016841F09F
:1014100001010160EEE72DE9F0410446866D90F888
:101420003400002501280DD0012084F8340094F800
:1014300035700020012F07D084F83400022528469B
:10144000BDE8F0810220FBE7022784F83570606573
:101450002046FFF745FA94F85C103F208840B060C2
:101460002068016841F016010160206C20B12068FD
:10147000016841F0080101602068016841F0010144
:101480000160DCE770B5044600F0F8F80546601C22
:1014900002D004480078044400F0F0F8401BA04259
:1014A000FAD370BD3C0000202DE9F84F00224FF028
:1014B000010803254FF00F0E0B6808FA02F42340D1
:1014C000A3426ED14E68012E05D0022E03D0112EFC
:1014D00001D0122E12D186684FEA420C05FA0CF7A1
:1014E000BE43CF6807FA0CF7374387604668A643C8
:1014F0000C79C4F30014944034434460C668570028
:1015000005FA07FC8C6826EA0C06BC403443C4602C
:101510004C68022C01D0122C13D1D40800EB8404A7
:10152000A346D4F8209054074FEAD46A0EFA0AF67C
:1015300029EA06090E6906FA0AF646EA0906CBF810
:10154000206004680E7924EA0C0406F00306BE400D
:10155000264306604C68E4006FD53B4C266846F491
:1015600080462660246822F0030604F48044009438
:10157000364C3444A446D4F808489607360F0EFA81
:1015800006F7BC43324FB84201D100272EE0314F5D
:10159000B84201D1012729E02F4FB84202D10227DA
:1015A00024E04AE02D4FB84201D103271EE02C4F22
:1015B000B84201D1042719E02A4FB84201D10527CA
:1015C00014E0294FB84201D106270FE0274FB84257
:1015D00001D107270AE0264FB84201D1082705E0CC
:1015E000244FB84201D1092700E00A27B74027431A
:1015F000CCF80878204E34684F689C43FF0300D530
:101600001C4334601C4E361D34684F689C43BF0336
:1016100000D51C433460184E083634684F689C432C
:10162000FF0200D51C433460134E0C3634684F68FB
:101630009C43BF0200D51C433460521C102AFFF4A7
:101640003BAFBDE8F88F0000443802400030014055
:10165000000002400004024000080240000C02406A
:10166000001002400014024000180240001C02401A
:101670000020024000240240003C014001488068F4
:10168000704700003C000020024881680278114445
:10169000816070473C0000200B4810B5016841F4A0
:1016A00000710160016841F480610160016841F4EA
:1016B00080710160032000F06FF8002000F006F850
:1016C00000F024F8002010BD003C024070B50D4D24
:1016D00004464FF47A712878B1FBF0F00A490968A2
:1016E000B1FBF0F000F004FB48B9102C07D2002247
:1016F0002146501E00F030F800206C6070BD0120C3
:1017000070BD00003C000020480000200A4808B5D9
:10171000016841F480410160006800F4804000905D
:101720000548001F016841F080510160006800F029
:101730008050009008BD000044380240002809DBBA
:1017400000F01F02012191404009800000F1E020DB
:10175000C0F8001170470000F0B40E4B1B680C4637
:10176000C3F30223C3F10705042D00D90425191D75
:10177000072901D2002300E0DB1E012606FA05F14D
:10178000491E214099409E40761E16403143F0BCD0
:1017900001F0CFBA0CED00E0064900F0070208683E
:1017A0004FF6FF03184040EA0220034A1043086046
:1017B000704700000CED00E00000FA052DE9F0474D
:1017C0000E46050065D0DFF81481D8F80000F7B2A6
:1017D00000F00F00B04207D288F80070D8F800007F
:1017E00000F00F00B04254D128683D4C810712D55B
:1017F000400703D5206840F4E050206028780007B7
:1018000003D5206840F4604020602068A96820F07B
:10181000F000084320602878C0072DD03049686860
:101820000839012812D0022813D0032811D00968E2
:10183000890700292DDA216821F003010143216085
:10184000FFF71CFF814641F2883A0EE009688903E0
:10185000EFE709688901ECE7FFF710FFA0EB09014A
:10186000514502D90320BDE8F0872068696800F07F
:101870000C00B0EB810FEFD1D8F80010404601F01A
:101880000F01B14207D90770006800F00F00B042A5
:1018900001D00120E7E72878400705D52068E968EE
:1018A00020F4E050084320602878000706D520681F
:1018B000296920F4604040EAC100206000F038F857
:1018C0002168084AC1F30311515CC8400649086009
:1018D00006480068FFF7FAFE0020C4E7003C02401B
:1018E000083802403830000848000020400000203E
:1018F0000448054900680968044AC1F38221515C23
:10190000C8407047480000200838024048300008AE
:101910000448054900680968044AC1F34231515C32
:10192000C84070474800002008380240483000088E
:10193000154810B5006810F00C02144813D0144973
:10194000042A0FD0082A0ED10F4C241F22682368C6
:1019500002F03F025B0207D52068C0F38810A0FBAD
:10196000010106E0084610BD2168C1F38811A1FB02
:1019700000010023FEF736FC2168C1F30141491C38
:101980004900B0FBF1F010BD083802400024F4001B
:10199000001BB7002DE9F84F04006ED02078DFF867
:1019A0003C93C007A9F104054AD009F1040001687D
:1019B000C1F38101012908D00068C0F38100022829
:1019C0000AD1D9F80000400206D52868800337D52F
:1019D00060680028E1D033E06068B0F5803F10D047
:1019E000B0F5A02F286810D020F480302860286837
:1019F00020F4802028606068A8B1FFF73FFE06460B
:101A00000DE0286840F48030F4E740F4802028603E
:101A1000F7E700BFFFF732FE801B642873D8286801
:101A20008003F7D50CE0FFF729FE064605E000BF6E
:101A3000FFF724FE801B6428F0D828688003F7D4C1
:101A40002078DFF89C8280074FF0000A3ED5A3483B
:101A5000001D016811F00C0F08D00068C0F3810070
:101A600002280BD1D9F80000400207D4286880076B
:101A700016D5E068012800D112E02BE1E068B8B18A
:101A80000120C8F80000FFF7F9FD064605E000BF99
:101A9000FFF7F4FD801B0228C0D828688007F7D51F
:101AA0002868216920F0F80040EAC10028600DE0B4
:101AB000C8F800A0FFF7E2FD064604E0FFF7DEFDF0
:101AC000801B02281FD828688007F7D420780007D9
:101AD00022D5824E83486169703671B1012101605F
:101AE000FFF7CCFD074604E0FFF7C8FDC01B022846
:101AF00009D830688007F7D50EE0C0F800A0FFF7DE
:101B0000BDFD074605E082E0FFF7B8FDC01B0228D7
:101B10007DD830688007F7D42078400768D5DFF893
:101B2000BCB100270BF13C0BDBF80000C0000BD46C
:101B3000DBF8001041F08051CBF80010DBF800001A
:101B4000012700F080500090674E3068C00510D427
:101B5000306840F480703060FFF790FD009005E041
:101B6000FFF78CFD0099401A022850D83068C00554
:101B7000F6D55A4EA0686C3601280FD0052830687B
:101B800010D020F001003060306820F00400306098
:101B9000A068B8B1FFF772FD00900FE0306840F028
:101BA0000100F4E740F004003060F7E7FFF766FD5E
:101BB0000099411A41F28830814266D83068800726
:101BC000F4D50EE0FFF75AFD009007E0FFF756FD51
:101BD0000099411A41F28830814256D83068800716
:101BE000F4D42FB1DBF8001021F08051CBF80010B5
:101BF000A069C8B33949091D0968C1F381010229E7
:101C00004AD00228504607D0C8F8600000E03CE007
:101C1000FFF734FD04463BE04746C8F86000FFF795
:101C20002DFD064605E000BFFFF728FD801B0228BA
:101C30002BD828688001F7D4D4E907010843A16AAA
:101C40002A4A490802EB0141626A41EA82110843CB
:101C500094F82C1040EA0161C9F8001001203866A0
:101C6000FFF70CFD044606E036E000BFFFF706FD77
:101C7000001B022809D828688001F7D52CE000BF96
:101C8000FFF7FCFC001B022802D90320BDE8F88FF7
:101C900028688001F4D41FE00128F7D0D9F80000AB
:101CA000E26900F48001914214D1226A00F03F0100
:101CB00091420FD147F6C071626A0140914209D149
:101CC000A26A00F44031914204D1E16A00F07060F0
:101CD000884201D00120D9E70020D7E7043802402C
:101CE00000004742800E4742007000400000FFFFA6
:101CF00010B5401EB0F1807F01D3012010BD4FF020
:101D0000E02460610F21601701F013F80020A0614A
:101D100007202061002010BD7047704770B590F813
:101D20003C20012A32D0012480F83C40022280F875
:101D30003D2003685A689D6822F070060A683243A5
:101D40005A60134B02689A4214D0B2F1804F11D0FE
:101D5000104B9A420ED0104B9A420BD00F4B9A4226
:101D600008D00F4B9A4205D00E4B9A4202D00E4B30
:101D70009A4204D1496825F080031943916080F8A4
:101D80003D40002180F83C10084670BD022070BD27
:101D9000000001400004004000080040000C00402A
:101DA00000040140004001400018004010B504004C
:101DB00003D094F83D0010B107E0012010BD0020D1
:101DC00084F83C00204600F00DF8022084F83D0025
:101DD000211D206800F09AFD012084F83D000020BC
:101DE00010BD000008B500680B49884212D10B48AD
:101DF000016841F0200101600068002200F020002D
:101E0000009007213720FFF7A7FCBDE808403720E6
:101E1000FFF794BC08BD00000014004040380240A9
:101E20000168CA6842F00102CA600068816801F076
:101E30000701062903D0016841F00101016000207B
:101E40007047704770B50446006801694FF000059F
:101E5000C943890715D4C168C943890711D4E91E4C
:101E6000016101202077206880698007204602D028
:101E7000FFF7E7FF04E000F098F8204600F096F83E
:101E8000257720680169C943490717D4C168C94348
:101E9000490713D46FF00401016102202077206804
:101EA000806910F4407F204602D0FFF7CAFF04E0AB
:101EB00000F07BF8204600F079F82577206801696A
:101EC000C943090716D4C168C943090712D46FF082
:101ED00008010161042020772068C069800720463E
:101EE00002D0FFF7AEFF04E000F05FF8204600F0FC
:101EF0005DF8257720680169C943C90617D4C16810
:101F0000C943C90613D46FF010010161082020777E
:101F10002068C06910F4407F204602D0FFF791FF8F
:101F200004E000F042F8204600F040F825772068F1
:101F30000169C943C90708D1C168C943C90704D1A8
:101F4000891E0161204600F033F820680169C94309
:101F5000090609D4C168C943090605D46FF0800198
:101F600001612046FFF7D8FE20680169C943490690
:101F700009D4C168C943490605D46FF04001016125
:101F8000204600F02BF820680169C94389060BD46C
:101F9000C168C943890607D46FF02001016120465A
:101FA000BDE87040FFF7B9BE70BD704770470000D4
:101FB00000680749884209D106494FF47A72064BF6
:101FC000086890FBF2F2401C1A600860704700003D
:101FD000001400403000002034000020704770479B
:101FE00070B5026804461068D168536910F00F0F8D
:101FF00052D003F0010501F490762E435FD0C20762
:1020000005D0CA0503D5E26B42F00102E263420744
:1020100005D5DA0703D0E26B42F00202E2638207E1
:1020200005D5DA0703D0E26B42F00402E26302074F
:1020300007D501F020022A4303D0E26B42F00802E8
:10204000E263E26B002A33D0800604D5880602D50D
:10205000204600F01FFD20684069E16BC0F380104E
:10206000090700D428B3204600F0FDFC2068416930
:1020700049061AD5416921F040014161606BA0B168
:102080001B490165606BFFF757F8002810D0606BA3
:10209000016DBDE870400847830610D58B060ED54C
:1020A0002046BDE8704000F0F5BC2046FFF797FFE2
:1020B00070BD2046FFF793FF0020E06370BD03066C
:1020C00006D50B0604D52046BDE8704000F0C2BD21
:1020D0004006F3D54806F1D5D168204621F04001ED
:1020E000D160202184F8391000F06CF970BD000037
:1020F000D529000870B5040004D094F839000025F3
:1021000010B106E0012070BD84F83850204600F080
:1021100023F8242084F839002068C16821F4005194
:10212000C160204600F002FD2068016921F4904161
:1021300001612068416921F02A0141612068C1687C
:1021400041F40051C160E563202084F8390084F82F
:102150003A00002070BD00002DE9F04F87B0064620
:1021600014216846FEF788F86B4933686B480225EE
:102170000327082200248B421FD1684910310B68C5
:1021800043F080430B60096801F0804105910168CC
:1021900041F0100101600068694600F010000590F0
:1021A000F801CDE900050120CDE9020704925C4861
:1021B000FFF77AF907B0BDE8F08F5849DFF864C13E
:1021C00014314FF4806A4FF4003B63454CD10A68E8
:1021D00042F010020A60096801F0100105910168DF
:1021E00041F001010160016801F001010591016800
:1021F00041F002010160006802AA00F002000590AF
:102200004FF40070CDE900054FF0070882E8900117
:1022100069464548FFF748F98020CDE9000502AA44
:10222000694682E890014148FFF73EF9414D404838
:1022300028604FF00060C5E90104C5E9034AC014F5
:102240006C61C5E90640C5E908B42846FFF756F8B1
:1022500008B1FEF7F1FC7563002211462520AE633C
:10226000FFF77AFA252054E0DFF8CCC06345A1D10E
:102270000B6843F020030B60096801F02001059111
:10228000016841F0040101600068029400F004005C
:102290000590C020CDE90005CDE9037269462748C5
:1022A000FFF702F9234D2248603560304FF0206976
:1022B000E5E802094020574691C51E4845F81449F3
:1022C000D846AC61C5E9074B60306C62FFF716F881
:1022D00008B1FEF7B1FC3563AE63164D1448C03546
:1022E00018382860C5E90194C5E903476C61AC6101
:1022F000C5E9074828466C62FFF700F808B1FEF709
:102300009BFC7563002211464720AE63FFF724FA59
:102310004720FFF713FA4DE70078004030380240BD
:102320000010024000100140000002400004024082
:1023300040640240DC02002000140140000802401A
:102340007047000070B5044690F83900202830D15D
:1023500069B362B394F8380001282AD0012084F8C8
:1023600038002162A284E2840025E563212084F8FC
:102370003900236B1048D863236B10481864236B13
:102380000F48D864206B134605652668206B321D04
:10239000FFF741F821686FF04000086084F838507A
:1023A0002068416941F080014161002070BD012039
:1023B00070BD022070BD00002F2A00085D2A0008B1
:1023C000E529000870477047FEE700000F4810B588
:1023D0000D4901600721416000214FF40032816006
:1023E000C0E90312D2004261017601224276827670
:1023F000C27601774177FEF7A9FD002803D0BDE83A
:102400001040FEF719BC10BD00640040B40100206C
:10241000114808B5016841F480010160006800229C
:1024200000F48000009011463920FFF795F939201B
:10243000FFF784F9002211463A20FFF78DF93A2080
:10244000FFF77CF9002211464520FFF785F9BDE82A
:1024500008404520FFF772B930380240194808B5E6
:10246000016841F080010160016801F08001009184
:10247000016841F010010160016801F01001009154
:10248000016841F004010160016801F0040100915C
:10249000016841F001010160016801F00101009152
:1024A000016841F008010160016801F00801009134
:1024B000016841F002010160006800F00200009034
:1024C00008BD0000303802401CB500240F480094BD
:1024D0000D49019401605321C0E9011440F2E73134
:1024E000C16080218161FFF761FC08B1FEF7A4FBA8
:1024F0000094694605480194FFF710FC002801D0BC
:10250000FEF79AFB1CBD000000140040DC01002017
:102510000C4810B50A4901604FF4E13141600021D7
:1025200081600C22C160C0E904128161C161FFF7C2
:10253000E1FD002803D0BDE81040FEF77DBB10BDD3
:10254000007800401C0200200C4810B50A490160C8
:102550000B494160002181600C22C160C0E9041276
:102560008161C161FFF7C6FD002803D0BDE81040BE
:10257000FEF762BB10BD0000001001405C020020AD
:10258000A08601000C4810B50A4901604FF4E13102
:102590004160002181600C22C160C0E904128161A8
:1025A000C161FFF7A7FD002803D0BDE81040FEF78A
:1025B00043BB10BD001401409C0200200FB41C4A14
:1025C00030B5BDF80D1006984BBAA0F2052000EB0F
:1025D000400122F83130BDF80F0043BA02EBC100D0
:1025E0004380BDF811305BBA83809DF8133083714E
:1025F00032F8313004891C1B0E4B9C4202DA048AEB
:10260000641C0482048932F83150641B9C4202DA53
:10261000038A5B1E038232F83130B0F9104003EBBD
:102620004433C36032F83110018130BC5DF814FBD3
:102630003C05002090E8FFFFFEE77047F0B4244817
:10264000AA210A230170FF214170F12181702149E3
:10265000C370CA6820498A60204A12684A60204ACA
:10266000127802711E4A5278427101F10802147800
:1026700084715478C47194780472D27842720A1DBD
:10268000147884725478C47294780473D278427344
:1026900000200870487088700E220D490E481B1DDE
:1026A00008E00D5D0678641C3544057046783544B5
:1026B000457084708478A342F3D803788B54521CFD
:1026C00040788854F0BC02490648521CFFF73ABED5
:1026D000B20500203C0500205000002080000020B2
:1026E0000C0000209C020020F0B42848AA210A23F4
:1026F0000170FF214170F22181702549C370244A85
:1027000091ED090A2349BDEEC00A81ED010A92ED5F
:102710000A0A214ABDEEC00A81ED020A92780271CE
:102720001D4AD27842710A1D147884715478C4719C
:1027300094780472D278427201F10802147884729B
:102740005478C47294780473D2784273002008706D
:10275000487088700E220D490E481B1D08E00D5D63
:102760000678641C3544057046783544457084709D
:102770008478A342F3D803788B54521C4078885451
:10278000F0BC02490548521CFFF7DCBDB205002031
:1027900020060020500000203C0500209C02002064
:1027A0007047C0E90D12183080EC030A7047000032
:1027B00000B5014680EC020A30EE600A80ED020AA4
:1027C000FDEEC00A2448C0ED000AD1ED030A2348FB
:1027D00030EE601A81ED041AD1ED060A60EE800A2F
:1027E000C1ED090AD1ED0A0AD1ED071A41EE800ABE
:1027F000C1ED0A0A91ED080A21EE000A81ED0B0AEB
:10280000BDEEE00A80ED000A91ED0E0A01F128000C
:10281000B8EE400A00F0ACFA91ED0A0A1048FDEE5D
:10282000C00AC0ED000AD1ED090A01F1300030EE16
:10283000800AD1ED0B0A30EE200A81ED0C0A91EDF1
:102840000D0AB8EE400A00F093FA91ED020A81ED0C
:10285000030A91ED0C0A00BD2C0000204C00002062
:10286000280000207047FEF70FBF000030B593B07E
:1028700030216846FDF700FD14210CA8FDF7FCFC93
:1028800019480025016841F080510160006800F09E
:10289000805011901548016841F440410160006882
:1028A000022400F4404011900120009000040190A7
:1028B0008001CDE9064006200890A820CDE9090452
:1028C00004200B906846FFF765F80CA90F2081E8FB
:1028D00031004FF4A0500F90E002109005210CA899
:1028E000FEF76CFF13B030BD40380240007000406E
:1028F0000248016841F470010160704788ED00E012
:102900000148FFF79FBA0000DC010020F0B5026823
:10291000254C264D264E274F274B4FF0804CA0428A
:1029200009D0604507D0A84205D0B04203D0B842D4
:1029300001D0984204D122F0700E4A6842EA0E0299
:10294000A0421BD0604519D0A84217D0B04215D084
:10295000B84213D0984211D0184DA8420ED0184D4D
:10296000A8420BD0174DA84208D0174DA84205D059
:10297000164DA84202D0164DA84203D122F440754C
:10298000CA682A434D6922F080022A4302608A689D
:10299000C2620A688262A04201D0984201D10969EC
:1029A000016301214161F0BD0000014000040040CD
:1029B00000080040000C00400004014000400140BD
:1029C000004401400048014000180040001C004045
:1029D0000020004010B5806B0021C185C184FFF745
:1029E000FEFA10BD70B5846B2068406994F8391008
:1029F000C0F3C0100025212904D118B1E584204678
:102A000000F03FF82068406994F83A10C0F3801055
:102A1000222904D118B1E585204600F024F8E06BA6
:102A200040F01000E0632046FFF7D9FA70BD10B502
:102A30000146806B09680968C9050CD40021C1846E
:102A400001684A6922F080024A610068C16841F069
:102A50004001C16010BDFFF7B5FC10BD10B5806B23
:102A6000FFF7B1FC10BD0168CA6822F49072CA6019
:102A700001684A6922F001024A61202180F83A1077
:102A800070470168CA6822F0C002CA60202180F83D
:102A90003910704710B590F83A10222901D0022061
:102AA00010BD8168B1F5805F11D00169002901680E
:102AB0001FD0496801F07F03816A4A1C82620B7053
:102AC000C18D491E0904090CC18518D02BE002698B
:102AD000816A002A0268526805D0D2B20A80816AEF
:102AE000491C8162ECE7C2F308020A80816A891CF2
:102AF000F7E74A68816A4B1C83620A70E0E7016865
:102B0000CA6822F02002CA600168CA6822F4807292
:102B1000CA6001684A6922F001024A61202180F8F6
:102B20003A10FFF70DFC002010BD00002DE9F04128
:102B3000044600680169E26821F4405111430161D3
:102B40002169A068E269084361691143084321686B
:102B5000CA6849F20C639A430243CA60206841691B
:102B6000A26921F4407111434161E069192764258C
:102B70003226B0F5004F354A354920684FF000083D
:102B800006D0884201D0904236D1FEF7C1FE35E032
:102B9000884201D0904202D1FEF7BAFE01E0FEF772
:102BA000A7FE61684A18A0FB070148EB0803FDF780
:102BB00019FB0146B0FBF5F00201B1FBF5F06FF037
:102BC0001803584301EB800006EBC000B0FBF5F0A2
:102BD00000F0F80002EB4002B1FBF5F0584301EBC6
:102BE000800006EBC000B0FBF5F000F007002168A4
:102BF00010448860BDE8F081FEF77AFE61688B0FB3
:102C00008A00A0FB0701FDF7EDFA0146B0FBF5F0E5
:102C10006FF01802504301EB800006EB0010B0FB90
:102C2000F5F000F0F002B1FBF5F002EB0012B1FBA1
:102C3000F5F06FF01803584301EB800006EB00102D
:102C4000B0FBF5F000F00F00D1E7000000140140E8
:102C50000010014090F83910212901D0022070475E
:102C60008168B1F5805F016A0BD04A1C026202687C
:102C700009785160C18C491E0904090CC1840ED029
:102C800017E009880268C1F3080151600169002951
:102C9000016A02D0491C0162ECE7891CFBE701686C
:102CA000CA6822F08002CA600068C16841F0400131
:102CB000C1600020704700000148FDF7D7BE00004A
:102CC0005C02002038B5164800680168154CC943FD
:102CD000890608D44268144B61785A54491C6170C3
:102CE0004068207016E00168C943C90612D4016823
:102CF0000025406800900C48FDF7E4FE65702078E0
:102D00000A49302802D0312802D003E00D6001E0EA
:102D100001200860BDE838400148FFF761B90000B4
:102D20009C02002038000020FC0300200800002046
:102D3000FEE70907090E002804DB00F1E02080F817
:102D40000014704700F00F0000F1E02080F8141D1F
:102D5000704702E008C8121F08C1002AFAD1704764
:102D60007047002001E001C1121F002AFBD170470B
:102D7000D0ED000AF4EEC00AF1EE10FA01DD80EDAC
:102D8000000AD0ED000AB1EE400AF4EEC00AF1EEFE
:102D900010FA01D280ED000A704700002DED028B81
:102DA000FEF77AFCFFF762FDFFF758FBFFF730FBF9
:102DB000FFF7E8FBFFF7ACFBFFF708FBFFF784FB2F
:102DC000FFF7C2FB002237A13848FDF7F5FE38486F
:102DD0000168CA6842F02002CA600068C16841F018
:102DE0001001C160FDF7CCFC3248FFF719F800F084
:102DF000C5F82E4C42F210711C3C04F108032E4819
:102E0000626993EC030AFFF7CCFC9FED2C8A2A48F9
:102E10004FF4FA6240F6B831B0EE481AF0EE480AC4
:102E20009FED270A3C30FFF7BCFC04F108034FF488
:102E30007A6193EC030A23486269FFF7B2FC47F218
:102E400048110A46B0EE481AF2EE000AB0EE480AFF
:102E50001D48FFF7A6FC1D4D2068012816D1B5F9C5
:102E6000020000EE100A0120B8EEC00AFDF7B8FE1D
:102E700094ED010A0220B8EEC00AFDF7B1FE94ED10
:102E8000060A0320B8EEC00AFDF7AAFEFFF7D6FB3C
:102E90000120FEF7F7FAFFF727FC0120FEF7F2FA10
:102EA000DAE700006572725F696E7400240000202A
:102EB0009C020020DC0100208404002000000000AF
:102EC0009A99993EE4050020200600203C05002048
:102ED00070B521484FF496710268204890ED001AB1
:102EE0001F48D0ED000A1F4890ED000A1E48FFF76A
:102EF00058FC1E481E4D1F4CB0F906001E4E10F522
:102F0000167F0EDC95ED030A1748F8EEC00A94ED23
:102F1000010AB8EEC00AFFF74BFCBDEEC00A86ED11
:102F2000000AB5F9020000EE100A0F48F8EEC00AD8
:102F300096ED000A3C30B8EEC00AFFF739FCBDEE52
:102F4000C00A00231A4610EE100A2060BDE8704047
:102F500001B20846FDF77CBE1C00002018000020CE
:102F60001400002010000020E40500205C00002078
:102F70003C0500207C0000200C00002038B51249E0
:102F800000250868026842680092C26842F4005254
:102F9000C2600868C16841F01001C1600A4C0B4A68
:102FA00094F83A0020280DD11623A262A385E56388
:102FB0002168606B091DFEF70BFA2068416941F03A
:102FC0004001416138BD00005C0200209C050020EA
:102FD00001000000020000000400000001000000E9
:102FE00002000000040000000400000001000000D6
:102FF00001000000020000000400000001000000C9
:1030000002000000040000000400000001000000B5
:1030100001000000020000000400000001000000A8
:103020000200000004000000040000000100000095
:103030000006101600061016000000000000000038
:10304000010203040607080900000000010203044E
:10305000703000080000002084000000522D00089D
:10306000F430000884000020DC090000622D000814
:10307000000000000200000001000000000000004D
:103080000000000000000000000000000000000040
:103090000000000000000000000000000000000030
:1030A000000000000000000000000000010000001F
:1030B00010000000000000000024F40000000000E8
:1030C00000000000030000000300000000000000FA
:1030D00000000000000000000000000000000000F0
:1030E00000000000000000000909000800000000C6
:0430F0006400000078
:04000005080001AD41
:00000001FF
